{
    "_format": "hh-sol-artifact-1",
    "contractName": "RoboPunksNFT",
    "sourceName": "contracts/RoboPunk.sol",
    "abi": [
        {
            "inputs": [],
            "stateMutability": "payable",
            "type": "constructor"
        },
        {
            "anonymous": false,
            "inputs": [
                {
                    "indexed": true,
                    "internalType": "address",
                    "name": "owner",
                    "type": "address"
                },
                {
                    "indexed": true,
                    "internalType": "address",
                    "name": "approved",
                    "type": "address"
                },
                {
                    "indexed": true,
                    "internalType": "uint256",
                    "name": "tokenId",
                    "type": "uint256"
                }
            ],
            "name": "Approval",
            "type": "event"
        },
        {
            "anonymous": false,
            "inputs": [
                {
                    "indexed": true,
                    "internalType": "address",
                    "name": "owner",
                    "type": "address"
                },
                {
                    "indexed": true,
                    "internalType": "address",
                    "name": "operator",
                    "type": "address"
                },
                {
                    "indexed": false,
                    "internalType": "bool",
                    "name": "approved",
                    "type": "bool"
                }
            ],
            "name": "ApprovalForAll",
            "type": "event"
        },
        {
            "anonymous": false,
            "inputs": [
                {
                    "indexed": true,
                    "internalType": "address",
                    "name": "previousOwner",
                    "type": "address"
                },
                {
                    "indexed": true,
                    "internalType": "address",
                    "name": "newOwner",
                    "type": "address"
                }
            ],
            "name": "OwnershipTransferred",
            "type": "event"
        },
        {
            "anonymous": false,
            "inputs": [
                {
                    "indexed": true,
                    "internalType": "address",
                    "name": "from",
                    "type": "address"
                },
                {
                    "indexed": true,
                    "internalType": "address",
                    "name": "to",
                    "type": "address"
                },
                {
                    "indexed": true,
                    "internalType": "uint256",
                    "name": "tokenId",
                    "type": "uint256"
                }
            ],
            "name": "Transfer",
            "type": "event"
        },
        {
            "inputs": [
                {
                    "internalType": "address",
                    "name": "to",
                    "type": "address"
                },
                {
                    "internalType": "uint256",
                    "name": "tokenId",
                    "type": "uint256"
                }
            ],
            "name": "approve",
            "outputs": [],
            "stateMutability": "nonpayable",
            "type": "function"
        },
        {
            "inputs": [
                {
                    "internalType": "address",
                    "name": "owner",
                    "type": "address"
                }
            ],
            "name": "balanceOf",
            "outputs": [
                {
                    "internalType": "uint256",
                    "name": "",
                    "type": "uint256"
                }
            ],
            "stateMutability": "view",
            "type": "function"
        },
        {
            "inputs": [
                {
                    "internalType": "uint256",
                    "name": "tokenId",
                    "type": "uint256"
                }
            ],
            "name": "getApproved",
            "outputs": [
                {
                    "internalType": "address",
                    "name": "",
                    "type": "address"
                }
            ],
            "stateMutability": "view",
            "type": "function"
        },
        {
            "inputs": [
                {
                    "internalType": "address",
                    "name": "owner",
                    "type": "address"
                },
                {
                    "internalType": "address",
                    "name": "operator",
                    "type": "address"
                }
            ],
            "name": "isApprovedForAll",
            "outputs": [
                {
                    "internalType": "bool",
                    "name": "",
                    "type": "bool"
                }
            ],
            "stateMutability": "view",
            "type": "function"
        },
        {
            "inputs": [],
            "name": "isPublicMintEnabled",
            "outputs": [
                {
                    "internalType": "bool",
                    "name": "",
                    "type": "bool"
                }
            ],
            "stateMutability": "view",
            "type": "function"
        },
        {
            "inputs": [],
            "name": "maxPerWallet",
            "outputs": [
                {
                    "internalType": "uint256",
                    "name": "",
                    "type": "uint256"
                }
            ],
            "stateMutability": "view",
            "type": "function"
        },
        {
            "inputs": [],
            "name": "maxSupply",
            "outputs": [
                {
                    "internalType": "uint256",
                    "name": "",
                    "type": "uint256"
                }
            ],
            "stateMutability": "view",
            "type": "function"
        },
        {
            "inputs": [
                {
                    "internalType": "uint256",
                    "name": "quantity_",
                    "type": "uint256"
                }
            ],
            "name": "mint",
            "outputs": [],
            "stateMutability": "payable",
            "type": "function"
        },
        {
            "inputs": [],
            "name": "mintPrice",
            "outputs": [
                {
                    "internalType": "uint256",
                    "name": "",
                    "type": "uint256"
                }
            ],
            "stateMutability": "view",
            "type": "function"
        },
        {
            "inputs": [],
            "name": "name",
            "outputs": [
                {
                    "internalType": "string",
                    "name": "",
                    "type": "string"
                }
            ],
            "stateMutability": "view",
            "type": "function"
        },
        {
            "inputs": [],
            "name": "owner",
            "outputs": [
                {
                    "internalType": "address",
                    "name": "",
                    "type": "address"
                }
            ],
            "stateMutability": "view",
            "type": "function"
        },
        {
            "inputs": [
                {
                    "internalType": "uint256",
                    "name": "tokenId",
                    "type": "uint256"
                }
            ],
            "name": "ownerOf",
            "outputs": [
                {
                    "internalType": "address",
                    "name": "",
                    "type": "address"
                }
            ],
            "stateMutability": "view",
            "type": "function"
        },
        {
            "inputs": [],
            "name": "renounceOwnership",
            "outputs": [],
            "stateMutability": "nonpayable",
            "type": "function"
        },
        {
            "inputs": [
                {
                    "internalType": "address",
                    "name": "from",
                    "type": "address"
                },
                {
                    "internalType": "address",
                    "name": "to",
                    "type": "address"
                },
                {
                    "internalType": "uint256",
                    "name": "tokenId",
                    "type": "uint256"
                }
            ],
            "name": "safeTransferFrom",
            "outputs": [],
            "stateMutability": "nonpayable",
            "type": "function"
        },
        {
            "inputs": [
                {
                    "internalType": "address",
                    "name": "from",
                    "type": "address"
                },
                {
                    "internalType": "address",
                    "name": "to",
                    "type": "address"
                },
                {
                    "internalType": "uint256",
                    "name": "tokenId",
                    "type": "uint256"
                },
                {
                    "internalType": "bytes",
                    "name": "data",
                    "type": "bytes"
                }
            ],
            "name": "safeTransferFrom",
            "outputs": [],
            "stateMutability": "nonpayable",
            "type": "function"
        },
        {
            "inputs": [
                {
                    "internalType": "address",
                    "name": "operator",
                    "type": "address"
                },
                {
                    "internalType": "bool",
                    "name": "approved",
                    "type": "bool"
                }
            ],
            "name": "setApprovalForAll",
            "outputs": [],
            "stateMutability": "nonpayable",
            "type": "function"
        },
        {
            "inputs": [
                {
                    "internalType": "string",
                    "name": "baseTokenUri_",
                    "type": "string"
                }
            ],
            "name": "setBaseTokenUri",
            "outputs": [],
            "stateMutability": "nonpayable",
            "type": "function"
        },
        {
            "inputs": [
                {
                    "internalType": "bool",
                    "name": "isPublicMintEnabled_",
                    "type": "bool"
                }
            ],
            "name": "setIsPublicMintEnabled",
            "outputs": [],
            "stateMutability": "nonpayable",
            "type": "function"
        },
        {
            "inputs": [
                {
                    "internalType": "bytes4",
                    "name": "interfaceId",
                    "type": "bytes4"
                }
            ],
            "name": "supportsInterface",
            "outputs": [
                {
                    "internalType": "bool",
                    "name": "",
                    "type": "bool"
                }
            ],
            "stateMutability": "view",
            "type": "function"
        },
        {
            "inputs": [],
            "name": "symbol",
            "outputs": [
                {
                    "internalType": "string",
                    "name": "",
                    "type": "string"
                }
            ],
            "stateMutability": "view",
            "type": "function"
        },
        {
            "inputs": [
                {
                    "internalType": "uint256",
                    "name": "tokenId",
                    "type": "uint256"
                }
            ],
            "name": "tokenURI",
            "outputs": [
                {
                    "internalType": "string",
                    "name": "",
                    "type": "string"
                }
            ],
            "stateMutability": "view",
            "type": "function"
        },
        {
            "inputs": [
                {
                    "internalType": "uint256",
                    "name": "tokenId_",
                    "type": "uint256"
                }
            ],
            "name": "tokenUri",
            "outputs": [
                {
                    "internalType": "string",
                    "name": "",
                    "type": "string"
                }
            ],
            "stateMutability": "view",
            "type": "function"
        },
        {
            "inputs": [],
            "name": "totalSupply",
            "outputs": [
                {
                    "internalType": "uint256",
                    "name": "",
                    "type": "uint256"
                }
            ],
            "stateMutability": "view",
            "type": "function"
        },
        {
            "inputs": [
                {
                    "internalType": "address",
                    "name": "from",
                    "type": "address"
                },
                {
                    "internalType": "address",
                    "name": "to",
                    "type": "address"
                },
                {
                    "internalType": "uint256",
                    "name": "tokenId",
                    "type": "uint256"
                }
            ],
            "name": "transferFrom",
            "outputs": [],
            "stateMutability": "nonpayable",
            "type": "function"
        },
        {
            "inputs": [
                {
                    "internalType": "address",
                    "name": "newOwner",
                    "type": "address"
                }
            ],
            "name": "transferOwnership",
            "outputs": [],
            "stateMutability": "nonpayable",
            "type": "function"
        },
        {
            "inputs": [
                {
                    "internalType": "address",
                    "name": "",
                    "type": "address"
                }
            ],
            "name": "walletMints",
            "outputs": [
                {
                    "internalType": "uint256",
                    "name": "",
                    "type": "uint256"
                }
            ],
            "stateMutability": "view",
            "type": "function"
        },
        {
            "inputs": [],
            "name": "withdraw",
            "outputs": [],
            "stateMutability": "nonpayable",
            "type": "function"
        },
        {
            "inputs": [],
            "name": "withdrawWallet",
            "outputs": [
                {
                    "internalType": "address payable",
                    "name": "",
                    "type": "address"
                }
            ],
            "stateMutability": "view",
            "type": "function"
        }
    ],
    "bytecode": "0x60806040526040518060400160405280600981526020017f526f626f50756e6b7300000000000000000000000000000000000000000000008152506040518060400160405280600281526020017f525000000000000000000000000000000000000000000000000000000000000081525081600090816200008191906200042b565b5080600190816200009391906200042b565b505050620000b6620000aa620000e360201b60201c565b620000eb60201b60201c565b66470de4df82000060078190555060006008819055506103e86009819055506003600a8190555062000512565b600033905090565b6000600660009054906101000a900473ffffffffffffffffffffffffffffffffffffffff16905081600660006101000a81548173ffffffffffffffffffffffffffffffffffffffff021916908373ffffffffffffffffffffffffffffffffffffffff1602179055508173ffffffffffffffffffffffffffffffffffffffff168173ffffffffffffffffffffffffffffffffffffffff167f8be0079c531659141344cd1fd0a4f28419497f9722a3daafe3b4186f6b6457e060405160405180910390a35050565b600081519050919050565b7f4e487b7100000000000000000000000000000000000000000000000000000000600052604160045260246000fd5b7f4e487b7100000000000000000000000000000000000000000000000000000000600052602260045260246000fd5b600060028204905060018216806200023357607f821691505b602082108103620002495762000248620001eb565b5b50919050565b60008190508160005260206000209050919050565b60006020601f8301049050919050565b600082821b905092915050565b600060088302620002b37fffffffffffffffffffffffffffffffffffffffffffffffffffffffffffffffff8262000274565b620002bf868362000274565b95508019841693508086168417925050509392505050565b6000819050919050565b6000819050919050565b60006200030c620003066200030084620002d7565b620002e1565b620002d7565b9050919050565b6000819050919050565b6200032883620002eb565b62000340620003378262000313565b84845462000281565b825550505050565b600090565b6200035762000348565b620003648184846200031d565b505050565b5b818110156200038c57620003806000826200034d565b6001810190506200036a565b5050565b601f821115620003db57620003a5816200024f565b620003b08462000264565b81016020851015620003c0578190505b620003d8620003cf8562000264565b83018262000369565b50505b505050565b600082821c905092915050565b60006200040060001984600802620003e0565b1980831691505092915050565b60006200041b8383620003ed565b9150826002028217905092915050565b6200043682620001b1565b67ffffffffffffffff811115620004525762000451620001bc565b5b6200045e82546200021a565b6200046b82828562000390565b600060209050601f831160018114620004a357600084156200048e578287015190505b6200049a85826200040d565b8655506200050a565b601f198416620004b3866200024f565b60005b82811015620004dd57848901518255600182019150602085019450602081019050620004b6565b86831015620004fd5784890151620004f9601f891682620003ed565b8355505b6001600288020188555050505b505050505050565b61393680620005226000396000f3fe6080604052600436106101b75760003560e01c806370a08231116100ec578063a22cb4651161008a578063d5abeb0111610064578063d5abeb01146105eb578063e985e9c514610616578063f0293fd314610653578063f2fde38b14610690576101b7565b8063a22cb4651461055c578063b88d4fde14610585578063c87b56dd146105ae576101b7565b80638da5cb5b116100c65780638da5cb5b146104c157806395652cfa146104ec57806395d89b4114610515578063a0712d6814610540576101b7565b806370a0823114610442578063715018a61461047f57806385d178f414610496576101b7565b80632373ac221161015957806342842e0e1161013357806342842e0e14610386578063453c2310146103af5780636352211e146103da5780636817c76c14610417576101b7565b80632373ac221461031d57806323b872dd146103465780633ccfd60b1461036f576101b7565b8063081812fc11610195578063081812fc1461024f578063095ea7b31461028c5780631675f455146102b557806318160ddd146102f2576101b7565b80630116bc2d146101bc57806301ffc9a7146101e757806306fdde0314610224575b600080fd5b3480156101c857600080fd5b506101d16106b9565b6040516101de9190612233565b60405180910390f35b3480156101f357600080fd5b5061020e600480360381019061020991906122ba565b6106cc565b60405161021b9190612233565b60405180910390f35b34801561023057600080fd5b506102396107ae565b6040516102469190612377565b60405180910390f35b34801561025b57600080fd5b50610276600480360381019061027191906123cf565b610840565b604051610283919061243d565b60405180910390f35b34801561029857600080fd5b506102b360048036038101906102ae9190612484565b610886565b005b3480156102c157600080fd5b506102dc60048036038101906102d791906123cf565b61099d565b6040516102e99190612377565b60405180910390f35b3480156102fe57600080fd5b50610307610a19565b60405161031491906124d3565b60405180910390f35b34801561032957600080fd5b50610344600480360381019061033f919061251a565b610a1f565b005b34801561035257600080fd5b5061036d60048036038101906103689190612547565b610a44565b005b34801561037b57600080fd5b50610384610aa4565b005b34801561039257600080fd5b506103ad60048036038101906103a89190612547565b610b7d565b005b3480156103bb57600080fd5b506103c4610b9d565b6040516103d191906124d3565b60405180910390f35b3480156103e657600080fd5b5061040160048036038101906103fc91906123cf565b610ba3565b60405161040e919061243d565b60405180910390f35b34801561042357600080fd5b5061042c610c29565b60405161043991906124d3565b60405180910390f35b34801561044e57600080fd5b506104696004803603810190610464919061259a565b610c2f565b60405161047691906124d3565b60405180910390f35b34801561048b57600080fd5b50610494610ce6565b005b3480156104a257600080fd5b506104ab610cfa565b6040516104b891906125e8565b60405180910390f35b3480156104cd57600080fd5b506104d6610d20565b6040516104e3919061243d565b60405180910390f35b3480156104f857600080fd5b50610513600480360381019061050e9190612668565b610d4a565b005b34801561052157600080fd5b5061052a610d68565b6040516105379190612377565b60405180910390f35b61055a600480360381019061055591906123cf565b610dfa565b005b34801561056857600080fd5b50610583600480360381019061057e91906126b5565b610fd1565b005b34801561059157600080fd5b506105ac60048036038101906105a79190612825565b610fe7565b005b3480156105ba57600080fd5b506105d560048036038101906105d091906123cf565b611049565b6040516105e29190612377565b60405180910390f35b3480156105f757600080fd5b506106006110b1565b60405161060d91906124d3565b60405180910390f35b34801561062257600080fd5b5061063d600480360381019061063891906128a8565b6110b7565b60405161064a9190612233565b60405180910390f35b34801561065f57600080fd5b5061067a6004803603810190610675919061259a565b61114b565b60405161068791906124d3565b60405180910390f35b34801561069c57600080fd5b506106b760048036038101906106b2919061259a565b611163565b005b600b60009054906101000a900460ff1681565b60007f80ac58cd000000000000000000000000000000000000000000000000000000007bffffffffffffffffffffffffffffffffffffffffffffffffffffffff1916827bffffffffffffffffffffffffffffffffffffffffffffffffffffffff1916148061079757507f5b5e139f000000000000000000000000000000000000000000000000000000007bffffffffffffffffffffffffffffffffffffffffffffffffffffffff1916827bffffffffffffffffffffffffffffffffffffffffffffffffffffffff1916145b806107a757506107a6826111e6565b5b9050919050565b6060600080546107bd90612917565b80601f01602080910402602001604051908101604052809291908181526020018280546107e990612917565b80156108365780601f1061080b57610100808354040283529160200191610836565b820191906000526020600020905b81548152906001019060200180831161081957829003601f168201915b5050505050905090565b600061084b82611250565b6004600083815260200190815260200160002060009054906101000a900473ffffffffffffffffffffffffffffffffffffffff169050919050565b600061089182610ba3565b90508073ffffffffffffffffffffffffffffffffffffffff168373ffffffffffffffffffffffffffffffffffffffff1603610901576040517f08c379a00000000000000000000000000000000000000000000000000000000081526004016108f8906129ba565b60405180910390fd5b8073ffffffffffffffffffffffffffffffffffffffff1661092061129b565b73ffffffffffffffffffffffffffffffffffffffff16148061094f575061094e8161094961129b565b6110b7565b5b61098e576040517f08c379a000000000000000000000000000000000000000000000000000000000815260040161098590612a4c565b60405180910390fd5b61099883836112a3565b505050565b60606109a88261135c565b6109e7576040517f08c379a00000000000000000000000000000000000000000000000000000000081526004016109de90612ab8565b60405180910390fd5b600c6109f28361139d565b604051602001610a03929190612bf8565b6040516020818303038152906040529050919050565b60085481565b610a2761146b565b80600b60006101000a81548160ff02191690831515021790555050565b610a55610a4f61129b565b826114e9565b610a94576040517f08c379a0000000000000000000000000000000000000000000000000000000008152600401610a8b90612c99565b60405180910390fd5b610a9f83838361157e565b505050565b610aac61146b565b6000600d60009054906101000a900473ffffffffffffffffffffffffffffffffffffffff1673ffffffffffffffffffffffffffffffffffffffff1647604051610af490612d10565b60006040518083038185875af1925050503d8060008114610b31576040519150601f19603f3d011682016040523d82523d6000602084013e610b36565b606091505b5050905080610b7a576040517f08c379a0000000000000000000000000000000000000000000000000000000008152600401610b7190612d71565b60405180910390fd5b50565b610b9883838360405180602001604052806000815250610fe7565b505050565b600a5481565b600080610baf83611877565b9050600073ffffffffffffffffffffffffffffffffffffffff168173ffffffffffffffffffffffffffffffffffffffff1603610c20576040517f08c379a0000000000000000000000000000000000000000000000000000000008152600401610c1790612ddd565b60405180910390fd5b80915050919050565b60075481565b60008073ffffffffffffffffffffffffffffffffffffffff168273ffffffffffffffffffffffffffffffffffffffff1603610c9f576040517f08c379a0000000000000000000000000000000000000000000000000000000008152600401610c9690612e6f565b60405180910390fd5b600360008373ffffffffffffffffffffffffffffffffffffffff1673ffffffffffffffffffffffffffffffffffffffff168152602001908152602001600020549050919050565b610cee61146b565b610cf860006118b4565b565b600d60009054906101000a900473ffffffffffffffffffffffffffffffffffffffff1681565b6000600660009054906101000a900473ffffffffffffffffffffffffffffffffffffffff16905090565b610d5261146b565b8181600c9182610d63929190613031565b505050565b606060018054610d7790612917565b80601f0160208091040260200160405190810160405280929190818152602001828054610da390612917565b8015610df05780601f10610dc557610100808354040283529160200191610df0565b820191906000526020600020905b815481529060010190602001808311610dd357829003601f168201915b5050505050905090565b600b60009054906101000a900460ff16610e49576040517f08c379a0000000000000000000000000000000000000000000000000000000008152600401610e409061314d565b60405180910390fd5b60075481610e57919061319c565b3414610e98576040517f08c379a0000000000000000000000000000000000000000000000000000000008152600401610e8f9061322a565b60405180910390fd5b60095481600854610ea9919061319c565b1115610eea576040517f08c379a0000000000000000000000000000000000000000000000000000000008152600401610ee190613296565b60405180910390fd5b600a5481600e60003373ffffffffffffffffffffffffffffffffffffffff1673ffffffffffffffffffffffffffffffffffffffff16815260200190815260200160002054610f3891906132b6565b1115610f79576040517f08c379a0000000000000000000000000000000000000000000000000000000008152600401610f7090613336565b60405180910390fd5b60005b81811015610fcd5760006001600854610f9591906132b6565b905060086000815480929190610faa90613356565b9190505550610fb9338261197a565b508080610fc590613356565b915050610f7c565b5050565b610fe3610fdc61129b565b8383611998565b5050565b610ff8610ff261129b565b836114e9565b611037576040517f08c379a000000000000000000000000000000000000000000000000000000000815260040161102e90612c99565b60405180910390fd5b61104384848484611b04565b50505050565b606061105482611250565b600061105e611b60565b9050600081511161107e57604051806020016040528060008152506110a9565b806110888461139d565b60405160200161109992919061339e565b6040516020818303038152906040525b915050919050565b60095481565b6000600560008473ffffffffffffffffffffffffffffffffffffffff1673ffffffffffffffffffffffffffffffffffffffff16815260200190815260200160002060008373ffffffffffffffffffffffffffffffffffffffff1673ffffffffffffffffffffffffffffffffffffffff16815260200190815260200160002060009054906101000a900460ff16905092915050565b600e6020528060005260406000206000915090505481565b61116b61146b565b600073ffffffffffffffffffffffffffffffffffffffff168173ffffffffffffffffffffffffffffffffffffffff16036111da576040517f08c379a00000000000000000000000000000000000000000000000000000000081526004016111d190613434565b60405180910390fd5b6111e3816118b4565b50565b60007f01ffc9a7000000000000000000000000000000000000000000000000000000007bffffffffffffffffffffffffffffffffffffffffffffffffffffffff1916827bffffffffffffffffffffffffffffffffffffffffffffffffffffffff1916149050919050565b6112598161135c565b611298576040517f08c379a000000000000000000000000000000000000000000000000000000000815260040161128f90612ddd565b60405180910390fd5b50565b600033905090565b816004600083815260200190815260200160002060006101000a81548173ffffffffffffffffffffffffffffffffffffffff021916908373ffffffffffffffffffffffffffffffffffffffff160217905550808273ffffffffffffffffffffffffffffffffffffffff1661131683610ba3565b73ffffffffffffffffffffffffffffffffffffffff167f8c5be1e5ebec7d5bd14f71427d1e84f3dd0314c0f7b2291e5b200ac8c7c3b92560405160405180910390a45050565b60008073ffffffffffffffffffffffffffffffffffffffff1661137e83611877565b73ffffffffffffffffffffffffffffffffffffffff1614159050919050565b6060600060016113ac84611b77565b01905060008167ffffffffffffffff8111156113cb576113ca6126fa565b5b6040519080825280601f01601f1916602001820160405280156113fd5781602001600182028036833780820191505090505b509050600082602001820190505b600115611460578080600190039150507f3031323334353637383961626364656600000000000000000000000000000000600a86061a8153600a858161145457611453613454565b5b0494506000850361140b575b819350505050919050565b61147361129b565b73ffffffffffffffffffffffffffffffffffffffff16611491610d20565b73ffffffffffffffffffffffffffffffffffffffff16146114e7576040517f08c379a00000000000000000000000000000000000000000000000000000000081526004016114de906134cf565b60405180910390fd5b565b6000806114f583610ba3565b90508073ffffffffffffffffffffffffffffffffffffffff168473ffffffffffffffffffffffffffffffffffffffff161480611537575061153681856110b7565b5b8061157557508373ffffffffffffffffffffffffffffffffffffffff1661155d84610840565b73ffffffffffffffffffffffffffffffffffffffff16145b91505092915050565b8273ffffffffffffffffffffffffffffffffffffffff1661159e82610ba3565b73ffffffffffffffffffffffffffffffffffffffff16146115f4576040517f08c379a00000000000000000000000000000000000000000000000000000000081526004016115eb90613561565b60405180910390fd5b600073ffffffffffffffffffffffffffffffffffffffff168273ffffffffffffffffffffffffffffffffffffffff1603611663576040517f08c379a000000000000000000000000000000000000000000000000000000000815260040161165a906135f3565b60405180910390fd5b6116708383836001611cca565b8273ffffffffffffffffffffffffffffffffffffffff1661169082610ba3565b73ffffffffffffffffffffffffffffffffffffffff16146116e6576040517f08c379a00000000000000000000000000000000000000000000000000000000081526004016116dd90613561565b60405180910390fd5b6004600082815260200190815260200160002060006101000a81549073ffffffffffffffffffffffffffffffffffffffff02191690556001600360008573ffffffffffffffffffffffffffffffffffffffff1673ffffffffffffffffffffffffffffffffffffffff168152602001908152602001600020600082825403925050819055506001600360008473ffffffffffffffffffffffffffffffffffffffff1673ffffffffffffffffffffffffffffffffffffffff16815260200190815260200160002060008282540192505081905550816002600083815260200190815260200160002060006101000a81548173ffffffffffffffffffffffffffffffffffffffff021916908373ffffffffffffffffffffffffffffffffffffffff160217905550808273ffffffffffffffffffffffffffffffffffffffff168473ffffffffffffffffffffffffffffffffffffffff167fddf252ad1be2c89b69c2b068fc378daa952ba7f163c4a11628f55a4df523b3ef60405160405180910390a46118728383836001611df0565b505050565b60006002600083815260200190815260200160002060009054906101000a900473ffffffffffffffffffffffffffffffffffffffff169050919050565b6000600660009054906101000a900473ffffffffffffffffffffffffffffffffffffffff16905081600660006101000a81548173ffffffffffffffffffffffffffffffffffffffff021916908373ffffffffffffffffffffffffffffffffffffffff1602179055508173ffffffffffffffffffffffffffffffffffffffff168173ffffffffffffffffffffffffffffffffffffffff167f8be0079c531659141344cd1fd0a4f28419497f9722a3daafe3b4186f6b6457e060405160405180910390a35050565b611994828260405180602001604052806000815250611df6565b5050565b8173ffffffffffffffffffffffffffffffffffffffff168373ffffffffffffffffffffffffffffffffffffffff1603611a06576040517f08c379a00000000000000000000000000000000000000000000000000000000081526004016119fd9061365f565b60405180910390fd5b80600560008573ffffffffffffffffffffffffffffffffffffffff1673ffffffffffffffffffffffffffffffffffffffff16815260200190815260200160002060008473ffffffffffffffffffffffffffffffffffffffff1673ffffffffffffffffffffffffffffffffffffffff16815260200190815260200160002060006101000a81548160ff0219169083151502179055508173ffffffffffffffffffffffffffffffffffffffff168373ffffffffffffffffffffffffffffffffffffffff167f17307eab39ab6107e8899845ad3d59bd9653f200f220920489ca2b5937696c3183604051611af79190612233565b60405180910390a3505050565b611b0f84848461157e565b611b1b84848484611e51565b611b5a576040517f08c379a0000000000000000000000000000000000000000000000000000000008152600401611b51906136f1565b60405180910390fd5b50505050565b606060405180602001604052806000815250905090565b600080600090507a184f03e93ff9f4daa797ed6e38ed64bf6a1f0100000000000000008310611bd5577a184f03e93ff9f4daa797ed6e38ed64bf6a1f0100000000000000008381611bcb57611bca613454565b5b0492506040810190505b6d04ee2d6d415b85acef81000000008310611c12576d04ee2d6d415b85acef81000000008381611c0857611c07613454565b5b0492506020810190505b662386f26fc100008310611c4157662386f26fc100008381611c3757611c36613454565b5b0492506010810190505b6305f5e1008310611c6a576305f5e1008381611c6057611c5f613454565b5b0492506008810190505b6127108310611c8f576127108381611c8557611c84613454565b5b0492506004810190505b60648310611cb25760648381611ca857611ca7613454565b5b0492506002810190505b600a8310611cc1576001810190505b80915050919050565b6001811115611dea57600073ffffffffffffffffffffffffffffffffffffffff168473ffffffffffffffffffffffffffffffffffffffff1614611d5e5780600360008673ffffffffffffffffffffffffffffffffffffffff1673ffffffffffffffffffffffffffffffffffffffff1681526020019081526020016000206000828254611d569190613711565b925050819055505b600073ffffffffffffffffffffffffffffffffffffffff168373ffffffffffffffffffffffffffffffffffffffff1614611de95780600360008573ffffffffffffffffffffffffffffffffffffffff1673ffffffffffffffffffffffffffffffffffffffff1681526020019081526020016000206000828254611de191906132b6565b925050819055505b5b50505050565b50505050565b611e008383611fd8565b611e0d6000848484611e51565b611e4c576040517f08c379a0000000000000000000000000000000000000000000000000000000008152600401611e43906136f1565b60405180910390fd5b505050565b6000611e728473ffffffffffffffffffffffffffffffffffffffff166121f5565b15611fcb578373ffffffffffffffffffffffffffffffffffffffff1663150b7a02611e9b61129b565b8786866040518563ffffffff1660e01b8152600401611ebd949392919061379a565b6020604051808303816000875af1925050508015611ef957506040513d601f19601f82011682018060405250810190611ef691906137fb565b60015b611f7b573d8060008114611f29576040519150601f19603f3d011682016040523d82523d6000602084013e611f2e565b606091505b506000815103611f73576040517f08c379a0000000000000000000000000000000000000000000000000000000008152600401611f6a906136f1565b60405180910390fd5b805181602001fd5b63150b7a0260e01b7bffffffffffffffffffffffffffffffffffffffffffffffffffffffff1916817bffffffffffffffffffffffffffffffffffffffffffffffffffffffff191614915050611fd0565b600190505b949350505050565b600073ffffffffffffffffffffffffffffffffffffffff168273ffffffffffffffffffffffffffffffffffffffff1603612047576040517f08c379a000000000000000000000000000000000000000000000000000000000815260040161203e90613874565b60405180910390fd5b6120508161135c565b15612090576040517f08c379a0000000000000000000000000000000000000000000000000000000008152600401612087906138e0565b60405180910390fd5b61209e600083836001611cca565b6120a78161135c565b156120e7576040517f08c379a00000000000000000000000000000000000000000000000000000000081526004016120de906138e0565b60405180910390fd5b6001600360008473ffffffffffffffffffffffffffffffffffffffff1673ffffffffffffffffffffffffffffffffffffffff16815260200190815260200160002060008282540192505081905550816002600083815260200190815260200160002060006101000a81548173ffffffffffffffffffffffffffffffffffffffff021916908373ffffffffffffffffffffffffffffffffffffffff160217905550808273ffffffffffffffffffffffffffffffffffffffff16600073ffffffffffffffffffffffffffffffffffffffff167fddf252ad1be2c89b69c2b068fc378daa952ba7f163c4a11628f55a4df523b3ef60405160405180910390a46121f1600083836001611df0565b5050565b6000808273ffffffffffffffffffffffffffffffffffffffff163b119050919050565b60008115159050919050565b61222d81612218565b82525050565b60006020820190506122486000830184612224565b92915050565b6000604051905090565b600080fd5b600080fd5b60007fffffffff0000000000000000000000000000000000000000000000000000000082169050919050565b61229781612262565b81146122a257600080fd5b50565b6000813590506122b48161228e565b92915050565b6000602082840312156122d0576122cf612258565b5b60006122de848285016122a5565b91505092915050565b600081519050919050565b600082825260208201905092915050565b60005b83811015612321578082015181840152602081019050612306565b60008484015250505050565b6000601f19601f8301169050919050565b6000612349826122e7565b61235381856122f2565b9350612363818560208601612303565b61236c8161232d565b840191505092915050565b60006020820190508181036000830152612391818461233e565b905092915050565b6000819050919050565b6123ac81612399565b81146123b757600080fd5b50565b6000813590506123c9816123a3565b92915050565b6000602082840312156123e5576123e4612258565b5b60006123f3848285016123ba565b91505092915050565b600073ffffffffffffffffffffffffffffffffffffffff82169050919050565b6000612427826123fc565b9050919050565b6124378161241c565b82525050565b6000602082019050612452600083018461242e565b92915050565b6124618161241c565b811461246c57600080fd5b50565b60008135905061247e81612458565b92915050565b6000806040838503121561249b5761249a612258565b5b60006124a98582860161246f565b92505060206124ba858286016123ba565b9150509250929050565b6124cd81612399565b82525050565b60006020820190506124e860008301846124c4565b92915050565b6124f781612218565b811461250257600080fd5b50565b600081359050612514816124ee565b92915050565b6000602082840312156125305761252f612258565b5b600061253e84828501612505565b91505092915050565b6000806000606084860312156125605761255f612258565b5b600061256e8682870161246f565b935050602061257f8682870161246f565b9250506040612590868287016123ba565b9150509250925092565b6000602082840312156125b0576125af612258565b5b60006125be8482850161246f565b91505092915050565b60006125d2826123fc565b9050919050565b6125e2816125c7565b82525050565b60006020820190506125fd60008301846125d9565b92915050565b600080fd5b600080fd5b600080fd5b60008083601f84011261262857612627612603565b5b8235905067ffffffffffffffff81111561264557612644612608565b5b6020830191508360018202830111156126615761266061260d565b5b9250929050565b6000806020838503121561267f5761267e612258565b5b600083013567ffffffffffffffff81111561269d5761269c61225d565b5b6126a985828601612612565b92509250509250929050565b600080604083850312156126cc576126cb612258565b5b60006126da8582860161246f565b92505060206126eb85828601612505565b9150509250929050565b600080fd5b7f4e487b7100000000000000000000000000000000000000000000000000000000600052604160045260246000fd5b6127328261232d565b810181811067ffffffffffffffff82111715612751576127506126fa565b5b80604052505050565b600061276461224e565b90506127708282612729565b919050565b600067ffffffffffffffff8211156127905761278f6126fa565b5b6127998261232d565b9050602081019050919050565b82818337600083830152505050565b60006127c86127c384612775565b61275a565b9050828152602081018484840111156127e4576127e36126f5565b5b6127ef8482856127a6565b509392505050565b600082601f83011261280c5761280b612603565b5b813561281c8482602086016127b5565b91505092915050565b6000806000806080858703121561283f5761283e612258565b5b600061284d8782880161246f565b945050602061285e8782880161246f565b935050604061286f878288016123ba565b925050606085013567ffffffffffffffff8111156128905761288f61225d565b5b61289c878288016127f7565b91505092959194509250565b600080604083850312156128bf576128be612258565b5b60006128cd8582860161246f565b92505060206128de8582860161246f565b9150509250929050565b7f4e487b7100000000000000000000000000000000000000000000000000000000600052602260045260246000fd5b6000600282049050600182168061292f57607f821691505b602082108103612942576129416128e8565b5b50919050565b7f4552433732313a20617070726f76616c20746f2063757272656e74206f776e6560008201527f7200000000000000000000000000000000000000000000000000000000000000602082015250565b60006129a46021836122f2565b91506129af82612948565b604082019050919050565b600060208201905081810360008301526129d381612997565b9050919050565b7f4552433732313a20617070726f76652063616c6c6572206973206e6f7420746f60008201527f6b656e206f776e6572206f7220617070726f76656420666f7220616c6c000000602082015250565b6000612a36603d836122f2565b9150612a41826129da565b604082019050919050565b60006020820190508181036000830152612a6581612a29565b9050919050565b7f546f6b656e20646f6573206e6f74206578697374000000000000000000000000600082015250565b6000612aa26014836122f2565b9150612aad82612a6c565b602082019050919050565b60006020820190508181036000830152612ad181612a95565b9050919050565b600081905092915050565b60008190508160005260206000209050919050565b60008154612b0581612917565b612b0f8186612ad8565b94506001821660008114612b2a5760018114612b3f57612b72565b60ff1983168652811515820286019350612b72565b612b4885612ae3565b60005b83811015612b6a57815481890152600182019150602081019050612b4b565b838801955050505b50505092915050565b6000612b86826122e7565b612b908185612ad8565b9350612ba0818560208601612303565b80840191505092915050565b7f6a736f6e00000000000000000000000000000000000000000000000000000000600082015250565b6000612be2600483612ad8565b9150612bed82612bac565b600482019050919050565b6000612c048285612af8565b9150612c108284612b7b565b9150612c1b82612bd5565b91508190509392505050565b7f4552433732313a2063616c6c6572206973206e6f7420746f6b656e206f776e6560008201527f72206f7220617070726f76656400000000000000000000000000000000000000602082015250565b6000612c83602d836122f2565b9150612c8e82612c27565b604082019050919050565b60006020820190508181036000830152612cb281612c76565b9050919050565b600081905092915050565b7f2000000000000000000000000000000000000000000000000000000000000000600082015250565b6000612cfa600183612cb9565b9150612d0582612cc4565b600182019050919050565b6000612d1b82612ced565b9150819050919050565b7f7769746864726177206661696c65640000000000000000000000000000000000600082015250565b6000612d5b600f836122f2565b9150612d6682612d25565b602082019050919050565b60006020820190508181036000830152612d8a81612d4e565b9050919050565b7f4552433732313a20696e76616c696420746f6b656e2049440000000000000000600082015250565b6000612dc76018836122f2565b9150612dd282612d91565b602082019050919050565b60006020820190508181036000830152612df681612dba565b9050919050565b7f4552433732313a2061646472657373207a65726f206973206e6f74206120766160008201527f6c6964206f776e65720000000000000000000000000000000000000000000000602082015250565b6000612e596029836122f2565b9150612e6482612dfd565b604082019050919050565b60006020820190508181036000830152612e8881612e4c565b9050919050565b600082905092915050565b60006020601f8301049050919050565b600082821b905092915050565b600060088302612ee77fffffffffffffffffffffffffffffffffffffffffffffffffffffffffffffffff82612eaa565b612ef18683612eaa565b95508019841693508086168417925050509392505050565b6000819050919050565b6000612f2e612f29612f2484612399565b612f09565b612399565b9050919050565b6000819050919050565b612f4883612f13565b612f5c612f5482612f35565b848454612eb7565b825550505050565b600090565b612f71612f64565b612f7c818484612f3f565b505050565b5b81811015612fa057612f95600082612f69565b600181019050612f82565b5050565b601f821115612fe557612fb681612ae3565b612fbf84612e9a565b81016020851015612fce578190505b612fe2612fda85612e9a565b830182612f81565b50505b505050565b600082821c905092915050565b600061300860001984600802612fea565b1980831691505092915050565b60006130218383612ff7565b9150826002028217905092915050565b61303b8383612e8f565b67ffffffffffffffff811115613054576130536126fa565b5b61305e8254612917565b613069828285612fa4565b6000601f8311600181146130985760008415613086578287013590505b6130908582613015565b8655506130f8565b601f1984166130a686612ae3565b60005b828110156130ce578489013582556001820191506020850194506020810190506130a9565b868310156130eb57848901356130e7601f891682612ff7565b8355505b6001600288020188555050505b50505050505050565b7f6d696e74696e67206e6f7420656e61626c656400000000000000000000000000600082015250565b60006131376013836122f2565b915061314282613101565b602082019050919050565b600060208201905081810360008301526131668161312a565b9050919050565b7f4e487b7100000000000000000000000000000000000000000000000000000000600052601160045260246000fd5b60006131a782612399565b91506131b283612399565b92508282026131c081612399565b915082820484148315176131d7576131d661316d565b5b5092915050565b7f77726f6e67206d696e742076616c756500000000000000000000000000000000600082015250565b60006132146010836122f2565b915061321f826131de565b602082019050919050565b6000602082019050818103600083015261324381613207565b9050919050565b7f736f6c206f757400000000000000000000000000000000000000000000000000600082015250565b60006132806007836122f2565b915061328b8261324a565b602082019050919050565b600060208201905081810360008301526132af81613273565b9050919050565b60006132c182612399565b91506132cc83612399565b92508282019050808211156132e4576132e361316d565b5b92915050565b7f206578636565646564206d61782077616c6c6574000000000000000000000000600082015250565b60006133206014836122f2565b915061332b826132ea565b602082019050919050565b6000602082019050818103600083015261334f81613313565b9050919050565b600061336182612399565b91507fffffffffffffffffffffffffffffffffffffffffffffffffffffffffffffffff82036133935761339261316d565b5b600182019050919050565b60006133aa8285612b7b565b91506133b68284612b7b565b91508190509392505050565b7f4f776e61626c653a206e6577206f776e657220697320746865207a65726f206160008201527f6464726573730000000000000000000000000000000000000000000000000000602082015250565b600061341e6026836122f2565b9150613429826133c2565b604082019050919050565b6000602082019050818103600083015261344d81613411565b9050919050565b7f4e487b7100000000000000000000000000000000000000000000000000000000600052601260045260246000fd5b7f4f776e61626c653a2063616c6c6572206973206e6f7420746865206f776e6572600082015250565b60006134b96020836122f2565b91506134c482613483565b602082019050919050565b600060208201905081810360008301526134e8816134ac565b9050919050565b7f4552433732313a207472616e736665722066726f6d20696e636f72726563742060008201527f6f776e6572000000000000000000000000000000000000000000000000000000602082015250565b600061354b6025836122f2565b9150613556826134ef565b604082019050919050565b6000602082019050818103600083015261357a8161353e565b9050919050565b7f4552433732313a207472616e7366657220746f20746865207a65726f2061646460008201527f7265737300000000000000000000000000000000000000000000000000000000602082015250565b60006135dd6024836122f2565b91506135e882613581565b604082019050919050565b6000602082019050818103600083015261360c816135d0565b9050919050565b7f4552433732313a20617070726f766520746f2063616c6c657200000000000000600082015250565b60006136496019836122f2565b915061365482613613565b602082019050919050565b600060208201905081810360008301526136788161363c565b9050919050565b7f4552433732313a207472616e7366657220746f206e6f6e20455243373231526560008201527f63656976657220696d706c656d656e7465720000000000000000000000000000602082015250565b60006136db6032836122f2565b91506136e68261367f565b604082019050919050565b6000602082019050818103600083015261370a816136ce565b9050919050565b600061371c82612399565b915061372783612399565b925082820390508181111561373f5761373e61316d565b5b92915050565b600081519050919050565b600082825260208201905092915050565b600061376c82613745565b6137768185613750565b9350613786818560208601612303565b61378f8161232d565b840191505092915050565b60006080820190506137af600083018761242e565b6137bc602083018661242e565b6137c960408301856124c4565b81810360608301526137db8184613761565b905095945050505050565b6000815190506137f58161228e565b92915050565b60006020828403121561381157613810612258565b5b600061381f848285016137e6565b91505092915050565b7f4552433732313a206d696e7420746f20746865207a65726f2061646472657373600082015250565b600061385e6020836122f2565b915061386982613828565b602082019050919050565b6000602082019050818103600083015261388d81613851565b9050919050565b7f4552433732313a20746f6b656e20616c7265616479206d696e74656400000000600082015250565b60006138ca601c836122f2565b91506138d582613894565b602082019050919050565b600060208201905081810360008301526138f9816138bd565b905091905056fea26469706673582212206bf35d02fb3bbda08897029ab4e5171a72f3843ecd88e002c5c0cd23c189d76564736f6c63430008110033",
    "linkReferences": {},
    "deployedLinkReferences": {}
}